:1000000012C044C19DC12AC029C028C027C026C033
:1000100025C005C123C022C021C020C01FC01EC0F2
:100020001DC01CC01BC011241FBECFE5D4E0DEBF25
:10003000CDBF10E0A0E6B0E0ECE7FFE002C0059025
:100040000D92A439B107D9F710E0A4E9B0E001C0DE
:100050001D92AA3BB107E1F702D08EC7D1CFDF9244
:10006000EF92FF920F931F938CE09DD28FEF9FED45
:10007000A0E181509040A040E1F700C0000080E680
:1000800090E072D28FEF9FEDA0E181509040A040B0
:10009000E1F700C0000080E681BBB89A82B38F719F
:1000A00082BB81E089BF12BE1DBC1CBC80EC8BBF33
:1000B0008AE085BF959AC09A8FEF9FEDA0E18150AD
:1000C0009040A040E1F700C0000036D278940F2E97
:1000D000F3E0DF2EF02D0F2EF0E0EF2EF0E0FF2EFC
:1000E000F0E00F2FF0E01F2FF02D809910C08FEF60
:1000F0009FEAA1E081509040A040E1F700C00000DD
:10010000809B05C0959883B7826083BF969A849937
:100110000EC08FEF9FEAA1E081509040A040E1F730
:1001200000C00000849B03C0C098DEBC979A8199F0
:10013000DCCFE0929400F09295000093960010932B
:10014000970010929C0010929D0010929E001092B9
:100150009F001092A1001092A0001092B90010927E
:10016000B800E0929800F092990000939A001093E2
:100170009B0012BE1DBC1CBC83B7887F83BF8EB59D
:10018000887F8EBDD9D196989798959AC09A80E02D
:1001900060E0C7D1AACF0F931F93CF93DF938C0159
:1001A00080E061E0BED100D000D000D0EDB7FEB756
:1001B0003196C4EAD0E0ADB7BEB71296DC93CE93C9
:1001C000119788E690E0938382831583048305D496
:1001D000FE0101900020E9F73197EC1BFD0BDF01D8
:1001E0001197B093A300A093A200EC0FFD1FAC0FDA
:1001F000BD1F8C9180838EE28C938DB79EB706963F
:100200000FB6F8949EBF0FBE8DBFCE01ADD18BE669
:1002100090E0AAD1DF91CF911F910F9108951F9285
:100220000F920FB60F9211242F933F934F935F932A
:100230006F937F938F939F93AF93BF93EF93FF93AE
:100240006091940070919500809196009091970034
:1002500020E030E040E85FE3D7D1609394007093F2
:1002600095008093960090939700FF91EF91BF9136
:10027000AF919F918F917F916F915F914F913F913E
:100280002F910F900FBE0F901F9018951F920F92F5
:100290000FB60F9211242F933F934F935F936F9359
:1002A0007F938F939F93AF93BF93EF93FF9383B706
:1002B000887F83BF60919400709195008091960033
:1002C0009091970020E030E040EE50E401D220E031
:1002D00030E040E251E4FCD1262F372F482F592F30
:1002E000209394003093950040939600509397008C
:1002F00020E030E048EC52E40DD352D29B017093E1
:10030000A1006093A000CB010A9743E18F379407C7
:1003100020F08EE690E028D102C0C9013CDFFF91B9
:10032000EF91BF91AF919F918F917F916F915F916D
:100330004F913F912F910F900FBE0F901F901895E6
:100340001F920F920FB60F9211242F933F934F934A
:100350005F936F937F938F939F93AF93BF93CF934D
:10036000DF93EF93FF938EB5887F8EBD6CB57DB51F
:1003700080E090E041D224E13EE248EE52E4A8D190
:100380000FD260939C0070939D0080939E00909389
:100390009F009B01AC012150304040405040283527
:1003A000A2E03A07A0E04A07A0E05A0720F08FE752
:1003B00090E0DAD02BC02DB73EB7285030400FB6B2
:1003C000F8943EBF0FBE2DBFEDB7FEB73196CEEA13
:1003D000D0E0ADB7BEB71296DC93CE93119728E666
:1003E00030E0338322836483758386839783F5D2D9
:1003F0002DB73EB7285F3F4F0FB6F8943EBF0FBEF4
:100400002DBFCE01B1D080E990E0AED0FF91EF9149
:10041000DF91CF91BF91AF919F918F917F916F911C
:100420005F914F913F912F910F900FBE0F901F90B2
:100430001895AA9A84E08A95F1F7AA9808951F93CF
:10044000662311F0A89A01C0A898A998B99ABA9AF7
:10045000BB9ABC9AC498C398C298C19888230CF4DC
:10046000C49A182F86FDC39A15FDC29A14FDC19A2D
:10047000E0DFC498C398C298C19813FDC49A12FDD6
:10048000C39A11FDC29A10FDC19AD3DFC19AC29AD4
:10049000C39AC49A1F910895882311F0A89A01C0A5
:1004A000A898A99AB998BA98BB98BC98AA9A84E0D7
:1004B0008A95F1F7B19902C080E001C080E1B2995C
:1004C0008062B3998064B4998068AA9894E09A9500
:1004D000F1F7AA9A94E09A95F1F7B1998160B299EF
:1004E0008260B3998460B4998860AA98089580E086
:1004F000D3DF8823E4F38FE08A95F1F780E0CCDF47
:1005000008951F93182FF3DF812F60E098DF1F916C
:1005100008951F93182FEBDF812F61E090DF1F916B
:100520000895662319F48058ECDF08958054E9DFBC
:100530000895DDDF90E0089581E0E3DF089582E033
:10054000E0DF08951F93182FD2DF1A3041F4803472
:1005500010F480E401C080E08058D3DF03C0812F15
:1005600061E06DDF1F910895CF93DF93EC018881E7
:10057000882329F02196E6DF89918823E1F7DF912E
:10058000CF910895CF93DF93EC01FC0184918823F0
:1005900039F02196D7DFFE01219684918823D1F787
:1005A000DF91CF9108951F93182FA09AA19AA29A34
:1005B000B99ABA9ABB9ABC9A8CEC9CEA0197F1F76B
:1005C00000C00000C29AC19A34DF8FEF95E3019713
:1005D000F1F700C000002DDF9CEE9A95F1F729DFBE
:1005E0008CEE8A95F1F7C19824DF9CEE9A95F1F78D
:1005F00088E287DF88E085DF9FDF86E082DF812F6A
:1006000080DF1F9108955058BB27AA270ED048C1FC
:1006100039D130F03ED120F031F49F3F11F41EF477
:100620002EC10EF4E095E7FB24C1E92F4AD180F3F7
:10063000BA17620773078407950718F071F49EF5DF
:1006400062C10EF4E0950B2EBA2FA02D0B01B9015B
:1006500090010C01CA01A0011124FF27591B99F038
:10066000593F50F4503E68F11A16F040A22F232F44
:10067000342F4427585FF3CF469537952795A79594
:10068000F0405395C9F77EF41F16BA0B620B730B3B
:10069000840BBAF09150A1F0FF0FBB1F661F771FAC
:1006A000881FC2F70EC0BA0F621F731F841F48F461
:1006B000879577956795B795F7959E3F08F0B3CFE7
:1006C0009395880F08F09927EE0F979587950895D1
:1006D0000CD0E6C0DED040F0D5D030F021F45F3F42
:1006E00019F0C7C0511110C1CAC0EBD098F39923BB
:1006F000C9F35523B1F3951B550BBB27AA276217E6
:100700007307840738F09F5F5F4F220F331F441F2A
:10071000AA1FA9F333D00E2E3AF0E0E830D0915062
:100720005040E695001CCAF729D0FE2F27D0660F4F
:10073000771F881FBB1F261737074807AB07B0E88E
:1007400009F0BB0B802DBF01FF2793585F4F2AF0A4
:100750009E3F510568F08DC0D7C05F3FECF3983ED7
:10076000DCF3869577956795B795F7959F5FC9F701
:10077000880F911D9695879597F90895E1E0660F8A
:10078000771F881FBB1F621773078407BA0720F003
:10079000621B730B840BBA0BEE1F88F7E09508956C
:1007A00098D088F09F5790F0B92F9927B751A0F0B3
:1007B000D1F0660F771F881F991F1AF0BA95C9F7F5
:1007C00012C0B13081F09FD0B1E008959CC0672F76
:1007D000782F8827B85F39F0B93FCCF386957795A5
:1007E0006795B395D9F73EF490958095709561958E
:1007F0007F4F8F4F9F4F0895E89409C097FB3EF4B9
:1008000090958095709561957F4F8F4F9F4F99235D
:10081000A9F0F92F96E9BB279395F69587957795DB
:100820006795B795F111F8CFFAF4BB0F11F460FF9B
:100830001BC06F5F7F4F8F4F9F4F16C0882311F0F3
:1008400096E911C0772321F09EE8872F762F05C007
:10085000662371F096E8862F70E060E02AF09A95A2
:10086000660F771F881FDAF7880F9695879597F997
:10087000089597F99F6780E870E060E008959FEF22
:1008800080EC089500240A94161617061806090627
:10089000089500240A9412161306140605060895F6
:1008A000092E0394000C11F4882352F0BB0F40F47E
:1008B000BF2B11F460FF04C06F5F7F4F8F4F9F4FBE
:1008C000089557FD9058440F551F59F05F3F71F040
:1008D0004795880F97FB991F61F09F3F79F08795A7
:1008E0000895121613061406551FF2CF4695F1DF30
:1008F00008C0161617061806991FF1CF86957105C0
:10090000610508940895E894BB2766277727CB01F3
:1009100097F908950BD0C4CFB5DF28F0BADF18F0EF
:10092000952309F0A6CFABCF1124EECFCADFA0F3F9
:10093000959FD1F3950F50E0551F629FF001729F74
:10094000BB27F00DB11D639FAA27F00DB11DAA1F93
:10095000649F6627B00DA11D661F829F2227B00DE0
:10096000A11D621F739FB00DA11D621F839FA00D6B
:10097000611D221F749F3327A00D611D231F849FBB
:10098000600D211D822F762F6A2F11249F57504012
:100990008AF0E1F088234AF0EE0FFF1FBB1F661FAD
:1009A000771F881F91505040A9F79E3F510570F066
:1009B00060CFAACF5F3FECF3983EDCF38695779546
:1009C0006795B795F795E7959F5FC1F7FE2B880F61
:1009D000911D9695879597F90895AEE0B0E0E2EF06
:1009E000F4E0A1C20D891E8986E08C831A830983F5
:1009F0008FEF9FE79E838D839E01275E3F4FCE0141
:100A000001966F89788DA90108D0EF81F885E00FF4
:100A1000F11F10822E96E4E0A2C2ACE0B0E0E2E169
:100A2000F5E073C26C011B018A01FC01178216827A
:100A3000838181FFC4C12E010894411C511CF60121
:100A40009381F10193FD859193FF81911F0188238B
:100A500009F4B1C1853239F493FD859193FF8191F9
:100A60001F01853221F490E0B601C5D1E8CFEE2414
:100A7000FF2420E02032B0F48B3269F08C3228F46D
:100A8000803251F0833271F40BC08D3239F08033F3
:100A900049F421602CC02260246029C0286027C04E
:100AA000206125C027FD2CC0382F30533A3098F4F0
:100AB00026FF08C08E2D880FE82EEE0CEE0CE80EF7
:100AC000E30E15C08F2D880FF82EFF0CFF0CF80ECB
:100AD000F30E20620CC08E3221F426FD6CC120641E
:100AE00006C08C3611F4206802C0883649F4F10142
:100AF00093FD859193FF81911F01882309F0BACF5F
:100B0000982F9554933018F09052933028F40C5F3E
:100B10001F4FFFE3F9830DC0833631F0833771F047
:100B2000833509F05CC021C0F801808189830E5FA4
:100B30001F4F420171E0A72EB12C15C062E0662E56
:100B4000712C600E711EF8018080918026FF03C019
:100B50006E2D70E002C06FEF7FEFC4012C8740D193
:100B60005C0183012C852F7716C052E0652E712C15
:100B7000600E711EF8018080918026FF03C06E2DEB
:100B800070E002C06FEF7FEFC4012C871ED15C01C3
:100B90002C852068830123FD1EC007C080E290E001
:100BA000B6012C8728D1FA942C858F2D90E0A816B9
:100BB000B906A0F310C0F40127FD859127FF8191AC
:100BC0004F0190E0B6012C8716D12C85F110FA94D4
:100BD0000894A108B108A114B10469F7E9C08436EA
:100BE00011F0893641F527FF08C0F8016081718155
:100BF000828193810C5F1F4F09C0F8016081718170
:100C0000882777FD8095982F0E5F1F4F4FE6B42EF3
:100C1000B22297FF09C090958095709561957F4F9E
:100C20008F4F9F4FF0E8BF2AA2012AE030E00FD19A
:100C3000782E741844C0853731F43FEEB32EB222BB
:100C40002AE030E025C099EFB92EB2228F36C1F0EC
:100C5000803720F4883509F0AEC00DC0803721F010
:100C6000883709F0A8C002C020E1B22AB4FE0BC048
:100C700084E0B82A08C0B4FE09C0E6E0BE2A06C077
:100C800028E030E005C020E130E002C020E132E0A1
:100C9000B7FE08C0F80160817181828193810C5F89
:100CA0001F4F07C0F8016081718180E090E00E5F06
:100CB0001F4FA201CCD0782E7418FFE7BF22B6FEDA
:100CC0000BC02EEFB2227E1438F4B4FE07C0B2FC83
:100CD00005C08FEEB82202C0A72C01C0AE2C8B2D10
:100CE00090E0B4FE0DC0FE01E70DF11D2081203320
:100CF00019F4E9EEBE2209C0A394B2FE06C004C0F6
:100D000086789070009709F0A3948B2C9924B3FCFB
:100D100013C0B0FE0EC0AF1428F4E72CEF0CEA1895
:100D2000AF2C07C0E72C05C080E290E0B60163D08D
:100D3000A394AF14C8F304C0AF1410F4FA1801C0A0
:100D4000FF2484FE0EC080E390E0B60154D082FE02
:100D50001DC081FE03C088E590E010C088E790E0E8
:100D60000DC0C40186789070009781F081FC02C0AC
:100D700080E201C08BE2B7FC8DE290E0B6013BD08F
:100D800005C080E390E0B60136D0EA947E14C8F343
:100D90007A94F201E70DF11D808190E0B6012BD02D
:100DA0007720B1F705C080E290E0B60124D0FA9434
:100DB000FF20C9F744CEF6012681378102C02FEF0C
:100DC0003FEFC9012C96E2E1BCC0FC0105906150E7
:100DD00070400110D8F7809590958E0F9F1F089551
:100DE000FC016150704001900110D8F780959095FA
:100DF0008E0F9F1F08950F931F93CF93DF938C0146
:100E0000EB018B8181FF1BC082FF0DC02E813F81D2
:100E10008C819D812817390764F4E881F981019359
:100E2000F983E88306C0E885F985802F0995009746
:100E300031F48E819F8101969F838E8302C00FEFD4
:100E40001FEFC801DF91CF911F910F910895FA0113
:100E5000AA27283051F1203181F1E8946F936E7FF9
:100E60006E5F7F4F8F4F9F4FAF4FB1E03ED0B4E0EA
:100E70003CD0670F781F891F9A1FA11D680F791F2B
:100E80008A1F911DA11D6A0F711D811D911DA11D3C
:100E900020D009F468943F912AE0269F112430194C
:100EA000305D3193DEF6CF010895462F4770405DE7
:100EB0004193B3E00FD0C9F7F6CF462F4F70405D96
:100EC0004A3318F0495D31FD4052419302D0A9F7F1
:100ED000EACFB4E0A6959795879577956795BA95EB
:100EE000C9F700976105710508959B01AC010A2EB1
:100EF00006945795479537952795BA95C9F7620F88
:100F0000731F841F951FA01D08952F923F924F922B
:100F10005F926F927F928F929F92AF92BF92CF9289
:100F2000DF92EF92FF920F931F93CF93DF93CDB792
:100F3000DEB7CA1BDB0B0FB6F894DEBF0FBECDBF0A
:100F400009942A88398848885F846E847D848C84DB
:100F50009B84AA84B984C884DF80EE80FD800C81E4
:100F60001B81AA81B981CE0FD11D0FB6F894DEBFC7
:0C0F70000FBECDBFED010895F894FFCF37
:100F7C0073746172746564002564007566006F7526
:100F8C0074206F662075662072616E676520006F35
:100F9C007574206F66206E662072616E6765200026
:040FAC006E6600006D
:00000001FF
